{
  "_format": "hh-sol-artifact-1",
  "contractName": "FruityNFT",
  "sourceName": "contracts/FruityNFT.sol",
  "abi": [
    {
      "anonymous": false,
      "inputs": [
        {
          "indexed": true,
          "internalType": "address",
          "name": "owner",
          "type": "address"
        },
        {
          "indexed": true,
          "internalType": "address",
          "name": "approved",
          "type": "address"
        },
        {
          "indexed": true,
          "internalType": "uint256",
          "name": "tokenId",
          "type": "uint256"
        }
      ],
      "name": "Approval",
      "type": "event"
    },
    {
      "anonymous": false,
      "inputs": [
        {
          "indexed": true,
          "internalType": "address",
          "name": "owner",
          "type": "address"
        },
        {
          "indexed": true,
          "internalType": "address",
          "name": "operator",
          "type": "address"
        },
        {
          "indexed": false,
          "internalType": "bool",
          "name": "approved",
          "type": "bool"
        }
      ],
      "name": "ApprovalForAll",
      "type": "event"
    },
    {
      "anonymous": false,
      "inputs": [
        {
          "indexed": false,
          "internalType": "uint8",
          "name": "version",
          "type": "uint8"
        }
      ],
      "name": "Initialized",
      "type": "event"
    },
    {
      "anonymous": false,
      "inputs": [
        {
          "indexed": true,
          "internalType": "address",
          "name": "previousOwner",
          "type": "address"
        },
        {
          "indexed": true,
          "internalType": "address",
          "name": "newOwner",
          "type": "address"
        }
      ],
      "name": "OwnershipTransferred",
      "type": "event"
    },
    {
      "anonymous": false,
      "inputs": [
        {
          "indexed": true,
          "internalType": "address",
          "name": "from",
          "type": "address"
        },
        {
          "indexed": true,
          "internalType": "address",
          "name": "to",
          "type": "address"
        },
        {
          "indexed": true,
          "internalType": "uint256",
          "name": "tokenId",
          "type": "uint256"
        }
      ],
      "name": "Transfer",
      "type": "event"
    },
    {
      "inputs": [
        {
          "internalType": "address",
          "name": "to",
          "type": "address"
        },
        {
          "internalType": "uint256",
          "name": "tokenId",
          "type": "uint256"
        }
      ],
      "name": "approve",
      "outputs": [],
      "stateMutability": "nonpayable",
      "type": "function"
    },
    {
      "inputs": [
        {
          "internalType": "address",
          "name": "owner",
          "type": "address"
        }
      ],
      "name": "balanceOf",
      "outputs": [
        {
          "internalType": "uint256",
          "name": "",
          "type": "uint256"
        }
      ],
      "stateMutability": "view",
      "type": "function"
    },
    {
      "inputs": [],
      "name": "currentSupply",
      "outputs": [
        {
          "internalType": "uint256",
          "name": "",
          "type": "uint256"
        }
      ],
      "stateMutability": "view",
      "type": "function"
    },
    {
      "inputs": [
        {
          "internalType": "uint256",
          "name": "tokenId",
          "type": "uint256"
        }
      ],
      "name": "getApproved",
      "outputs": [
        {
          "internalType": "address",
          "name": "",
          "type": "address"
        }
      ],
      "stateMutability": "view",
      "type": "function"
    },
    {
      "inputs": [],
      "name": "initialized",
      "outputs": [],
      "stateMutability": "nonpayable",
      "type": "function"
    },
    {
      "inputs": [
        {
          "internalType": "address",
          "name": "owner",
          "type": "address"
        },
        {
          "internalType": "address",
          "name": "operator",
          "type": "address"
        }
      ],
      "name": "isApprovedForAll",
      "outputs": [
        {
          "internalType": "bool",
          "name": "",
          "type": "bool"
        }
      ],
      "stateMutability": "view",
      "type": "function"
    },
    {
      "inputs": [],
      "name": "maxPerWallet",
      "outputs": [
        {
          "internalType": "uint256",
          "name": "",
          "type": "uint256"
        }
      ],
      "stateMutability": "view",
      "type": "function"
    },
    {
      "inputs": [],
      "name": "maxSupply",
      "outputs": [
        {
          "internalType": "uint256",
          "name": "",
          "type": "uint256"
        }
      ],
      "stateMutability": "view",
      "type": "function"
    },
    {
      "inputs": [],
      "name": "name",
      "outputs": [
        {
          "internalType": "string",
          "name": "",
          "type": "string"
        }
      ],
      "stateMutability": "view",
      "type": "function"
    },
    {
      "inputs": [],
      "name": "owner",
      "outputs": [
        {
          "internalType": "address",
          "name": "",
          "type": "address"
        }
      ],
      "stateMutability": "view",
      "type": "function"
    },
    {
      "inputs": [
        {
          "internalType": "uint256",
          "name": "tokenId",
          "type": "uint256"
        }
      ],
      "name": "ownerOf",
      "outputs": [
        {
          "internalType": "address",
          "name": "",
          "type": "address"
        }
      ],
      "stateMutability": "view",
      "type": "function"
    },
    {
      "inputs": [],
      "name": "renounceOwnership",
      "outputs": [],
      "stateMutability": "nonpayable",
      "type": "function"
    },
    {
      "inputs": [
        {
          "internalType": "address",
          "name": "to",
          "type": "address"
        },
        {
          "internalType": "uint256",
          "name": "_tokenId",
          "type": "uint256"
        }
      ],
      "name": "safeBurn",
      "outputs": [],
      "stateMutability": "nonpayable",
      "type": "function"
    },
    {
      "inputs": [
        {
          "internalType": "address",
          "name": "to",
          "type": "address"
        }
      ],
      "name": "safeMint",
      "outputs": [],
      "stateMutability": "nonpayable",
      "type": "function"
    },
    {
      "inputs": [
        {
          "internalType": "address",
          "name": "from",
          "type": "address"
        },
        {
          "internalType": "address",
          "name": "to",
          "type": "address"
        },
        {
          "internalType": "uint256",
          "name": "tokenId",
          "type": "uint256"
        }
      ],
      "name": "safeTransferFrom",
      "outputs": [],
      "stateMutability": "nonpayable",
      "type": "function"
    },
    {
      "inputs": [
        {
          "internalType": "address",
          "name": "from",
          "type": "address"
        },
        {
          "internalType": "address",
          "name": "to",
          "type": "address"
        },
        {
          "internalType": "uint256",
          "name": "tokenId",
          "type": "uint256"
        },
        {
          "internalType": "bytes",
          "name": "data",
          "type": "bytes"
        }
      ],
      "name": "safeTransferFrom",
      "outputs": [],
      "stateMutability": "nonpayable",
      "type": "function"
    },
    {
      "inputs": [
        {
          "internalType": "address",
          "name": "operator",
          "type": "address"
        },
        {
          "internalType": "bool",
          "name": "approved",
          "type": "bool"
        }
      ],
      "name": "setApprovalForAll",
      "outputs": [],
      "stateMutability": "nonpayable",
      "type": "function"
    },
    {
      "inputs": [],
      "name": "showsupply",
      "outputs": [
        {
          "internalType": "uint256",
          "name": "",
          "type": "uint256"
        }
      ],
      "stateMutability": "pure",
      "type": "function"
    },
    {
      "inputs": [
        {
          "internalType": "bytes4",
          "name": "interfaceId",
          "type": "bytes4"
        }
      ],
      "name": "supportsInterface",
      "outputs": [
        {
          "internalType": "bool",
          "name": "",
          "type": "bool"
        }
      ],
      "stateMutability": "view",
      "type": "function"
    },
    {
      "inputs": [],
      "name": "symbol",
      "outputs": [
        {
          "internalType": "string",
          "name": "",
          "type": "string"
        }
      ],
      "stateMutability": "view",
      "type": "function"
    },
    {
      "inputs": [
        {
          "internalType": "uint256",
          "name": "_tokenId",
          "type": "uint256"
        }
      ],
      "name": "tokenURI",
      "outputs": [
        {
          "internalType": "string",
          "name": "",
          "type": "string"
        }
      ],
      "stateMutability": "view",
      "type": "function"
    },
    {
      "inputs": [
        {
          "internalType": "address",
          "name": "from",
          "type": "address"
        },
        {
          "internalType": "address",
          "name": "to",
          "type": "address"
        },
        {
          "internalType": "uint256",
          "name": "tokenId",
          "type": "uint256"
        }
      ],
      "name": "transferFrom",
      "outputs": [],
      "stateMutability": "nonpayable",
      "type": "function"
    },
    {
      "inputs": [
        {
          "internalType": "address",
          "name": "newOwner",
          "type": "address"
        }
      ],
      "name": "transferOwnership",
      "outputs": [],
      "stateMutability": "nonpayable",
      "type": "function"
    },
    {
      "inputs": [
        {
          "internalType": "address",
          "name": "",
          "type": "address"
        }
      ],
      "name": "walletMints",
      "outputs": [
        {
          "internalType": "uint256",
          "name": "",
          "type": "uint256"
        }
      ],
      "stateMutability": "view",
      "type": "function"
    }
  ],
  "bytecode": "0x608060405234801561000f575f80fd5b5061316d8061001d5f395ff3fe608060405234801561000f575f80fd5b5060043610610140575f3560e01c806370a08231116100b6578063b88d4fde1161007a578063b88d4fde1461033a578063c87b56dd14610356578063d5abeb0114610386578063e985e9c5146103a4578063f0293fd3146103d4578063f2fde38b1461040457610140565b806370a08231146102a8578063715018a6146102d85780638da5cb5b146102e257806395d89b4114610300578063a22cb4651461031e57610140565b8063158ef93e11610108578063158ef93e146101fc57806323b872dd1461020657806342842e0e14610222578063453c23101461023e5780636352211e1461025c5780636ed452fd1461028c57610140565b806301ffc9a71461014457806306fdde0314610174578063081812fc14610192578063095ea7b3146101c2578063148a884f146101de575b5f80fd5b61015e60048036038101906101599190611e86565b610420565b60405161016b9190611ecb565b60405180910390f35b61017c610501565b6040516101899190611f6e565b60405180910390f35b6101ac60048036038101906101a79190611fc1565b610591565b6040516101b9919061202b565b60405180910390f35b6101dc60048036038101906101d7919061206e565b6105d3565b005b6101e66106e9565b6040516101f391906120bb565b60405180910390f35b6102046106f2565b005b610220600480360381019061021b91906120d4565b6108a6565b005b61023c600480360381019061023791906120d4565b610906565b005b610246610925565b60405161025391906120bb565b60405180910390f35b61027660048036038101906102719190611fc1565b61092a565b604051610283919061202b565b60405180910390f35b6102a660048036038101906102a19190612124565b6109ae565b005b6102c260048036038101906102bd9190612124565b6109e9565b6040516102cf91906120bb565b60405180910390f35b6102e0610a9d565b005b6102ea610ab0565b6040516102f7919061202b565b60405180910390f35b610308610ad8565b6040516103159190611f6e565b60405180910390f35b61033860048036038101906103339190612179565b610b68565b005b610354600480360381019061034f91906122e3565b610b7e565b005b610370600480360381019061036b9190611fc1565b610be0565b60405161037d9190611f6e565b60405180910390f35b61038e610c6c565b60405161039b91906120bb565b60405180910390f35b6103be60048036038101906103b99190612363565b610c72565b6040516103cb9190611ecb565b60405180910390f35b6103ee60048036038101906103e99190612124565b610d00565b6040516103fb91906120bb565b60405180910390f35b61041e60048036038101906104199190612124565b610d15565b005b5f7f80ac58cd000000000000000000000000000000000000000000000000000000007bffffffffffffffffffffffffffffffffffffffffffffffffffffffff1916827bffffffffffffffffffffffffffffffffffffffffffffffffffffffff191614806104ea57507f5b5e139f000000000000000000000000000000000000000000000000000000007bffffffffffffffffffffffffffffffffffffffffffffffffffffffff1916827bffffffffffffffffffffffffffffffffffffffffffffffffffffffff1916145b806104fa57506104f982610d97565b5b9050919050565b606060658054610510906123ce565b80601f016020809104026020016040519081016040528092919081815260200182805461053c906123ce565b80156105875780601f1061055e57610100808354040283529160200191610587565b820191905f5260205f20905b81548152906001019060200180831161056a57829003601f168201915b5050505050905090565b5f61059b82610e00565b60695f8381526020019081526020015f205f9054906101000a900473ffffffffffffffffffffffffffffffffffffffff169050919050565b5f6105dd8261092a565b90508073ffffffffffffffffffffffffffffffffffffffff168373ffffffffffffffffffffffffffffffffffffffff160361064d576040517f08c379a00000000000000000000000000000000000000000000000000000000081526004016106449061246e565b60405180910390fd5b8073ffffffffffffffffffffffffffffffffffffffff1661066c610e4b565b73ffffffffffffffffffffffffffffffffffffffff16148061069b575061069a81610695610e4b565b610c72565b5b6106da576040517f08c379a00000000000000000000000000000000000000000000000000000000081526004016106d1906124fc565b60405180910390fd5b6106e48383610e52565b505050565b5f60ca54905090565b5f8060019054906101000a900460ff16159050808015610721575060015f8054906101000a900460ff1660ff16105b8061074d575061073030610f08565b15801561074c575060015f8054906101000a900460ff1660ff16145b5b61078c576040517f08c379a00000000000000000000000000000000000000000000000000000000081526004016107839061258a565b60405180910390fd5b60015f806101000a81548160ff021916908360ff16021790555080156107c75760015f60016101000a81548160ff0219169083151502179055505b61083b6040518060400160405280600981526020017f4672756974794e465400000000000000000000000000000000000000000000008152506040518060400160405280600281526020017f464e000000000000000000000000000000000000000000000000000000000000815250610f2a565b610843610f86565b600a60ca8190555080156108a3575f8060016101000a81548160ff0219169083151502179055507f7f26b83ff96e1f2b6a682f133852f6798a09c465da95921460cefb3847402498600160405161089a91906125f6565b60405180910390a15b50565b6108b76108b1610e4b565b82610fde565b6108f6576040517f08c379a00000000000000000000000000000000000000000000000000000000081526004016108ed9061267f565b60405180910390fd5b610901838383611072565b505050565b61092083838360405180602001604052805f815250610b7e565b505050565b600181565b5f806109358361135e565b90505f73ffffffffffffffffffffffffffffffffffffffff168173ffffffffffffffffffffffffffffffffffffffff16036109a5576040517f08c379a000000000000000000000000000000000000000000000000000000000815260040161099c906126e7565b60405180910390fd5b80915050919050565b5f60016109bb60c9611397565b6109c59190612732565b90506109d160c96113a3565b6109db82826113b7565b6109e481610be0565b505050565b5f8073ffffffffffffffffffffffffffffffffffffffff168273ffffffffffffffffffffffffffffffffffffffff1603610a58576040517f08c379a0000000000000000000000000000000000000000000000000000000008152600401610a4f906127d5565b60405180910390fd5b60685f8373ffffffffffffffffffffffffffffffffffffffff1673ffffffffffffffffffffffffffffffffffffffff1681526020019081526020015f20549050919050565b610aa56113d4565b610aae5f611452565b565b5f60975f9054906101000a900473ffffffffffffffffffffffffffffffffffffffff16905090565b606060668054610ae7906123ce565b80601f0160208091040260200160405190810160405280929190818152602001828054610b13906123ce565b8015610b5e5780601f10610b3557610100808354040283529160200191610b5e565b820191905f5260205f20905b815481529060010190602001808311610b4157829003601f168201915b5050505050905090565b610b7a610b73610e4b565b8383611515565b5050565b610b8f610b89610e4b565b83610fde565b610bce576040517f08c379a0000000000000000000000000000000000000000000000000000000008152600401610bc59061267f565b60405180910390fd5b610bda8484848461167c565b50505050565b6060610beb826116d8565b610c2a576040517f08c379a0000000000000000000000000000000000000000000000000000000008152600401610c219061283d565b60405180910390fd5b5f610c3483611718565b90505f610c3f6117e2565b82604051602001610c519291906128df565b60405160208183030381529060405290508092505050919050565b60ca5481565b5f606a5f8473ffffffffffffffffffffffffffffffffffffffff1673ffffffffffffffffffffffffffffffffffffffff1681526020019081526020015f205f8373ffffffffffffffffffffffffffffffffffffffff1673ffffffffffffffffffffffffffffffffffffffff1681526020019081526020015f205f9054906101000a900460ff16905092915050565b60cb602052805f5260405f205f915090505481565b610d1d6113d4565b5f73ffffffffffffffffffffffffffffffffffffffff168173ffffffffffffffffffffffffffffffffffffffff1603610d8b576040517f08c379a0000000000000000000000000000000000000000000000000000000008152600401610d829061297d565b60405180910390fd5b610d9481611452565b50565b5f7f01ffc9a7000000000000000000000000000000000000000000000000000000007bffffffffffffffffffffffffffffffffffffffffffffffffffffffff1916827bffffffffffffffffffffffffffffffffffffffffffffffffffffffff1916149050919050565b610e09816116d8565b610e48576040517f08c379a0000000000000000000000000000000000000000000000000000000008152600401610e3f906126e7565b60405180910390fd5b50565b5f33905090565b8160695f8381526020019081526020015f205f6101000a81548173ffffffffffffffffffffffffffffffffffffffff021916908373ffffffffffffffffffffffffffffffffffffffff160217905550808273ffffffffffffffffffffffffffffffffffffffff16610ec28361092a565b73ffffffffffffffffffffffffffffffffffffffff167f8c5be1e5ebec7d5bd14f71427d1e84f3dd0314c0f7b2291e5b200ac8c7c3b92560405160405180910390a45050565b5f808273ffffffffffffffffffffffffffffffffffffffff163b119050919050565b5f60019054906101000a900460ff16610f78576040517f08c379a0000000000000000000000000000000000000000000000000000000008152600401610f6f90612a0b565b60405180910390fd5b610f828282611802565b5050565b5f60019054906101000a900460ff16610fd4576040517f08c379a0000000000000000000000000000000000000000000000000000000008152600401610fcb90612a0b565b60405180910390fd5b610fdc611874565b565b5f80610fe98361092a565b90508073ffffffffffffffffffffffffffffffffffffffff168473ffffffffffffffffffffffffffffffffffffffff16148061102b575061102a8185610c72565b5b8061106957508373ffffffffffffffffffffffffffffffffffffffff1661105184610591565b73ffffffffffffffffffffffffffffffffffffffff16145b91505092915050565b8273ffffffffffffffffffffffffffffffffffffffff166110928261092a565b73ffffffffffffffffffffffffffffffffffffffff16146110e8576040517f08c379a00000000000000000000000000000000000000000000000000000000081526004016110df90612a99565b60405180910390fd5b5f73ffffffffffffffffffffffffffffffffffffffff168273ffffffffffffffffffffffffffffffffffffffff1603611156576040517f08c379a000000000000000000000000000000000000000000000000000000000815260040161114d90612b27565b60405180910390fd5b61116383838360016118d4565b8273ffffffffffffffffffffffffffffffffffffffff166111838261092a565b73ffffffffffffffffffffffffffffffffffffffff16146111d9576040517f08c379a00000000000000000000000000000000000000000000000000000000081526004016111d090612a99565b60405180910390fd5b60695f8281526020019081526020015f205f6101000a81549073ffffffffffffffffffffffffffffffffffffffff0219169055600160685f8573ffffffffffffffffffffffffffffffffffffffff1673ffffffffffffffffffffffffffffffffffffffff1681526020019081526020015f205f8282540392505081905550600160685f8473ffffffffffffffffffffffffffffffffffffffff1673ffffffffffffffffffffffffffffffffffffffff1681526020019081526020015f205f82825401925050819055508160675f8381526020019081526020015f205f6101000a81548173ffffffffffffffffffffffffffffffffffffffff021916908373ffffffffffffffffffffffffffffffffffffffff160217905550808273ffffffffffffffffffffffffffffffffffffffff168473ffffffffffffffffffffffffffffffffffffffff167fddf252ad1be2c89b69c2b068fc378daa952ba7f163c4a11628f55a4df523b3ef60405160405180910390a461135983838360016118da565b505050565b5f60675f8381526020019081526020015f205f9054906101000a900473ffffffffffffffffffffffffffffffffffffffff169050919050565b5f815f01549050919050565b6001815f015f828254019250508190555050565b6113d0828260405180602001604052805f8152506118e0565b5050565b6113dc610e4b565b73ffffffffffffffffffffffffffffffffffffffff166113fa610ab0565b73ffffffffffffffffffffffffffffffffffffffff1614611450576040517f08c379a000000000000000000000000000000000000000000000000000000000815260040161144790612b8f565b60405180910390fd5b565b5f60975f9054906101000a900473ffffffffffffffffffffffffffffffffffffffff1690508160975f6101000a81548173ffffffffffffffffffffffffffffffffffffffff021916908373ffffffffffffffffffffffffffffffffffffffff1602179055508173ffffffffffffffffffffffffffffffffffffffff168173ffffffffffffffffffffffffffffffffffffffff167f8be0079c531659141344cd1fd0a4f28419497f9722a3daafe3b4186f6b6457e060405160405180910390a35050565b8173ffffffffffffffffffffffffffffffffffffffff168373ffffffffffffffffffffffffffffffffffffffff1603611583576040517f08c379a000000000000000000000000000000000000000000000000000000000815260040161157a90612bf7565b60405180910390fd5b80606a5f8573ffffffffffffffffffffffffffffffffffffffff1673ffffffffffffffffffffffffffffffffffffffff1681526020019081526020015f205f8473ffffffffffffffffffffffffffffffffffffffff1673ffffffffffffffffffffffffffffffffffffffff1681526020019081526020015f205f6101000a81548160ff0219169083151502179055508173ffffffffffffffffffffffffffffffffffffffff168373ffffffffffffffffffffffffffffffffffffffff167f17307eab39ab6107e8899845ad3d59bd9653f200f220920489ca2b5937696c318360405161166f9190611ecb565b60405180910390a3505050565b611687848484611072565b6116938484848461193a565b6116d2576040517f08c379a00000000000000000000000000000000000000000000000000000000081526004016116c990612c85565b60405180910390fd5b50505050565b5f8073ffffffffffffffffffffffffffffffffffffffff166116f98361135e565b73ffffffffffffffffffffffffffffffffffffffff1614159050919050565b60605f600161172684611abc565b0190505f8167ffffffffffffffff811115611744576117436121bf565b5b6040519080825280601f01601f1916602001820160405280156117765781602001600182028036833780820191505090505b5090505f82602001820190505b6001156117d7578080600190039150507f3031323334353637383961626364656600000000000000000000000000000000600a86061a8153600a85816117cc576117cb612ca3565b5b0494505f8503611783575b819350505050919050565b60606040518060800160405280605981526020016130df60599139905090565b5f60019054906101000a900460ff16611850576040517f08c379a000000000000000000000000000000000000000000000000000000000815260040161184790612a0b565b60405180910390fd5b816065908161185f9190612e64565b50806066908161186f9190612e64565b505050565b5f60019054906101000a900460ff166118c2576040517f08c379a00000000000000000000000000000000000000000000000000000000081526004016118b990612a0b565b60405180910390fd5b6118d26118cd610e4b565b611452565b565b50505050565b50505050565b6118ea8383611c0d565b6118f65f84848461193a565b611935576040517f08c379a000000000000000000000000000000000000000000000000000000000815260040161192c90612c85565b60405180910390fd5b505050565b5f61195a8473ffffffffffffffffffffffffffffffffffffffff16610f08565b15611aaf578373ffffffffffffffffffffffffffffffffffffffff1663150b7a02611983610e4b565b8786866040518563ffffffff1660e01b81526004016119a59493929190612f85565b6020604051808303815f875af19250505080156119e057506040513d601f19601f820116820180604052508101906119dd9190612fe3565b60015b611a5f573d805f8114611a0e576040519150601f19603f3d011682016040523d82523d5f602084013e611a13565b606091505b505f815103611a57576040517f08c379a0000000000000000000000000000000000000000000000000000000008152600401611a4e90612c85565b60405180910390fd5b805181602001fd5b63150b7a0260e01b7bffffffffffffffffffffffffffffffffffffffffffffffffffffffff1916817bffffffffffffffffffffffffffffffffffffffffffffffffffffffff191614915050611ab4565b600190505b949350505050565b5f805f90507a184f03e93ff9f4daa797ed6e38ed64bf6a1f0100000000000000008310611b18577a184f03e93ff9f4daa797ed6e38ed64bf6a1f0100000000000000008381611b0e57611b0d612ca3565b5b0492506040810190505b6d04ee2d6d415b85acef81000000008310611b55576d04ee2d6d415b85acef81000000008381611b4b57611b4a612ca3565b5b0492506020810190505b662386f26fc100008310611b8457662386f26fc100008381611b7a57611b79612ca3565b5b0492506010810190505b6305f5e1008310611bad576305f5e1008381611ba357611ba2612ca3565b5b0492506008810190505b6127108310611bd2576127108381611bc857611bc7612ca3565b5b0492506004810190505b60648310611bf55760648381611beb57611bea612ca3565b5b0492506002810190505b600a8310611c04576001810190505b80915050919050565b5f73ffffffffffffffffffffffffffffffffffffffff168273ffffffffffffffffffffffffffffffffffffffff1603611c7b576040517f08c379a0000000000000000000000000000000000000000000000000000000008152600401611c7290613058565b60405180910390fd5b611c84816116d8565b15611cc4576040517f08c379a0000000000000000000000000000000000000000000000000000000008152600401611cbb906130c0565b60405180910390fd5b611cd15f838360016118d4565b611cda816116d8565b15611d1a576040517f08c379a0000000000000000000000000000000000000000000000000000000008152600401611d11906130c0565b60405180910390fd5b600160685f8473ffffffffffffffffffffffffffffffffffffffff1673ffffffffffffffffffffffffffffffffffffffff1681526020019081526020015f205f82825401925050819055508160675f8381526020019081526020015f205f6101000a81548173ffffffffffffffffffffffffffffffffffffffff021916908373ffffffffffffffffffffffffffffffffffffffff160217905550808273ffffffffffffffffffffffffffffffffffffffff165f73ffffffffffffffffffffffffffffffffffffffff167fddf252ad1be2c89b69c2b068fc378daa952ba7f163c4a11628f55a4df523b3ef60405160405180910390a4611e1c5f838360016118da565b5050565b5f604051905090565b5f80fd5b5f80fd5b5f7fffffffff0000000000000000000000000000000000000000000000000000000082169050919050565b611e6581611e31565b8114611e6f575f80fd5b50565b5f81359050611e8081611e5c565b92915050565b5f60208284031215611e9b57611e9a611e29565b5b5f611ea884828501611e72565b91505092915050565b5f8115159050919050565b611ec581611eb1565b82525050565b5f602082019050611ede5f830184611ebc565b92915050565b5f81519050919050565b5f82825260208201905092915050565b5f5b83811015611f1b578082015181840152602081019050611f00565b5f8484015250505050565b5f601f19601f8301169050919050565b5f611f4082611ee4565b611f4a8185611eee565b9350611f5a818560208601611efe565b611f6381611f26565b840191505092915050565b5f6020820190508181035f830152611f868184611f36565b905092915050565b5f819050919050565b611fa081611f8e565b8114611faa575f80fd5b50565b5f81359050611fbb81611f97565b92915050565b5f60208284031215611fd657611fd5611e29565b5b5f611fe384828501611fad565b91505092915050565b5f73ffffffffffffffffffffffffffffffffffffffff82169050919050565b5f61201582611fec565b9050919050565b6120258161200b565b82525050565b5f60208201905061203e5f83018461201c565b92915050565b61204d8161200b565b8114612057575f80fd5b50565b5f8135905061206881612044565b92915050565b5f806040838503121561208457612083611e29565b5b5f6120918582860161205a565b92505060206120a285828601611fad565b9150509250929050565b6120b581611f8e565b82525050565b5f6020820190506120ce5f8301846120ac565b92915050565b5f805f606084860312156120eb576120ea611e29565b5b5f6120f88682870161205a565b93505060206121098682870161205a565b925050604061211a86828701611fad565b9150509250925092565b5f6020828403121561213957612138611e29565b5b5f6121468482850161205a565b91505092915050565b61215881611eb1565b8114612162575f80fd5b50565b5f813590506121738161214f565b92915050565b5f806040838503121561218f5761218e611e29565b5b5f61219c8582860161205a565b92505060206121ad85828601612165565b9150509250929050565b5f80fd5b5f80fd5b7f4e487b71000000000000000000000000000000000000000000000000000000005f52604160045260245ffd5b6121f582611f26565b810181811067ffffffffffffffff82111715612214576122136121bf565b5b80604052505050565b5f612226611e20565b905061223282826121ec565b919050565b5f67ffffffffffffffff821115612251576122506121bf565b5b61225a82611f26565b9050602081019050919050565b828183375f83830152505050565b5f61228761228284612237565b61221d565b9050828152602081018484840111156122a3576122a26121bb565b5b6122ae848285612267565b509392505050565b5f82601f8301126122ca576122c96121b7565b5b81356122da848260208601612275565b91505092915050565b5f805f80608085870312156122fb576122fa611e29565b5b5f6123088782880161205a565b94505060206123198782880161205a565b935050604061232a87828801611fad565b925050606085013567ffffffffffffffff81111561234b5761234a611e2d565b5b612357878288016122b6565b91505092959194509250565b5f806040838503121561237957612378611e29565b5b5f6123868582860161205a565b92505060206123978582860161205a565b9150509250929050565b7f4e487b71000000000000000000000000000000000000000000000000000000005f52602260045260245ffd5b5f60028204905060018216806123e557607f821691505b6020821081036123f8576123f76123a1565b5b50919050565b7f4552433732313a20617070726f76616c20746f2063757272656e74206f776e655f8201527f7200000000000000000000000000000000000000000000000000000000000000602082015250565b5f612458602183611eee565b9150612463826123fe565b604082019050919050565b5f6020820190508181035f8301526124858161244c565b9050919050565b7f4552433732313a20617070726f76652063616c6c6572206973206e6f7420746f5f8201527f6b656e206f776e6572206f7220617070726f76656420666f7220616c6c000000602082015250565b5f6124e6603d83611eee565b91506124f18261248c565b604082019050919050565b5f6020820190508181035f830152612513816124da565b9050919050565b7f496e697469616c697a61626c653a20636f6e747261637420697320616c7265615f8201527f647920696e697469616c697a6564000000000000000000000000000000000000602082015250565b5f612574602e83611eee565b915061257f8261251a565b604082019050919050565b5f6020820190508181035f8301526125a181612568565b9050919050565b5f819050919050565b5f60ff82169050919050565b5f819050919050565b5f6125e06125db6125d6846125a8565b6125bd565b6125b1565b9050919050565b6125f0816125c6565b82525050565b5f6020820190506126095f8301846125e7565b92915050565b7f4552433732313a2063616c6c6572206973206e6f7420746f6b656e206f776e655f8201527f72206f7220617070726f76656400000000000000000000000000000000000000602082015250565b5f612669602d83611eee565b91506126748261260f565b604082019050919050565b5f6020820190508181035f8301526126968161265d565b9050919050565b7f4552433732313a20696e76616c696420746f6b656e20494400000000000000005f82015250565b5f6126d1601883611eee565b91506126dc8261269d565b602082019050919050565b5f6020820190508181035f8301526126fe816126c5565b9050919050565b7f4e487b71000000000000000000000000000000000000000000000000000000005f52601160045260245ffd5b5f61273c82611f8e565b915061274783611f8e565b925082820190508082111561275f5761275e612705565b5b92915050565b7f4552433732313a2061646472657373207a65726f206973206e6f7420612076615f8201527f6c6964206f776e65720000000000000000000000000000000000000000000000602082015250565b5f6127bf602983611eee565b91506127ca82612765565b604082019050919050565b5f6020820190508181035f8301526127ec816127b3565b9050919050565b7f546f6b656e20646f6573206e6f742065786973740000000000000000000000005f82015250565b5f612827601483611eee565b9150612832826127f3565b602082019050919050565b5f6020820190508181035f8301526128548161281b565b9050919050565b5f81905092915050565b5f61286f82611ee4565b612879818561285b565b9350612889818560208601611efe565b80840191505092915050565b7f2e6a736f6e0000000000000000000000000000000000000000000000000000005f82015250565b5f6128c960058361285b565b91506128d482612895565b600582019050919050565b5f6128ea8285612865565b91506128f68284612865565b9150612901826128bd565b91508190509392505050565b7f4f776e61626c653a206e6577206f776e657220697320746865207a65726f20615f8201527f6464726573730000000000000000000000000000000000000000000000000000602082015250565b5f612967602683611eee565b91506129728261290d565b604082019050919050565b5f6020820190508181035f8301526129948161295b565b9050919050565b7f496e697469616c697a61626c653a20636f6e7472616374206973206e6f7420695f8201527f6e697469616c697a696e67000000000000000000000000000000000000000000602082015250565b5f6129f5602b83611eee565b9150612a008261299b565b604082019050919050565b5f6020820190508181035f830152612a22816129e9565b9050919050565b7f4552433732313a207472616e736665722066726f6d20696e636f7272656374205f8201527f6f776e6572000000000000000000000000000000000000000000000000000000602082015250565b5f612a83602583611eee565b9150612a8e82612a29565b604082019050919050565b5f6020820190508181035f830152612ab081612a77565b9050919050565b7f4552433732313a207472616e7366657220746f20746865207a65726f206164645f8201527f7265737300000000000000000000000000000000000000000000000000000000602082015250565b5f612b11602483611eee565b9150612b1c82612ab7565b604082019050919050565b5f6020820190508181035f830152612b3e81612b05565b9050919050565b7f4f776e61626c653a2063616c6c6572206973206e6f7420746865206f776e65725f82015250565b5f612b79602083611eee565b9150612b8482612b45565b602082019050919050565b5f6020820190508181035f830152612ba681612b6d565b9050919050565b7f4552433732313a20617070726f766520746f2063616c6c6572000000000000005f82015250565b5f612be1601983611eee565b9150612bec82612bad565b602082019050919050565b5f6020820190508181035f830152612c0e81612bd5565b9050919050565b7f4552433732313a207472616e7366657220746f206e6f6e2045524337323152655f8201527f63656976657220696d706c656d656e7465720000000000000000000000000000602082015250565b5f612c6f603283611eee565b9150612c7a82612c15565b604082019050919050565b5f6020820190508181035f830152612c9c81612c63565b9050919050565b7f4e487b71000000000000000000000000000000000000000000000000000000005f52601260045260245ffd5b5f819050815f5260205f209050919050565b5f6020601f8301049050919050565b5f82821b905092915050565b5f60088302612d2c7fffffffffffffffffffffffffffffffffffffffffffffffffffffffffffffffff82612cf1565b612d368683612cf1565b95508019841693508086168417925050509392505050565b5f612d68612d63612d5e84611f8e565b6125bd565b611f8e565b9050919050565b5f819050919050565b612d8183612d4e565b612d95612d8d82612d6f565b848454612cfd565b825550505050565b5f90565b612da9612d9d565b612db4818484612d78565b505050565b5b81811015612dd757612dcc5f82612da1565b600181019050612dba565b5050565b601f821115612e1c57612ded81612cd0565b612df684612ce2565b81016020851015612e05578190505b612e19612e1185612ce2565b830182612db9565b50505b505050565b5f82821c905092915050565b5f612e3c5f1984600802612e21565b1980831691505092915050565b5f612e548383612e2d565b9150826002028217905092915050565b612e6d82611ee4565b67ffffffffffffffff811115612e8657612e856121bf565b5b612e9082546123ce565b612e9b828285612ddb565b5f60209050601f831160018114612ecc575f8415612eba578287015190505b612ec48582612e49565b865550612f2b565b601f198416612eda86612cd0565b5f5b82811015612f0157848901518255600182019150602085019450602081019050612edc565b86831015612f1e5784890151612f1a601f891682612e2d565b8355505b6001600288020188555050505b505050505050565b5f81519050919050565b5f82825260208201905092915050565b5f612f5782612f33565b612f618185612f3d565b9350612f71818560208601611efe565b612f7a81611f26565b840191505092915050565b5f608082019050612f985f83018761201c565b612fa5602083018661201c565b612fb260408301856120ac565b8181036060830152612fc48184612f4d565b905095945050505050565b5f81519050612fdd81611e5c565b92915050565b5f60208284031215612ff857612ff7611e29565b5b5f61300584828501612fcf565b91505092915050565b7f4552433732313a206d696e7420746f20746865207a65726f20616464726573735f82015250565b5f613042602083611eee565b915061304d8261300e565b602082019050919050565b5f6020820190508181035f83015261306f81613036565b9050919050565b7f4552433732313a20746f6b656e20616c7265616479206d696e746564000000005f82015250565b5f6130aa601c83611eee565b91506130b582613076565b602082019050919050565b5f6020820190508181035f8301526130d78161309e565b905091905056fe68747470733a2f2f6e667473746f726167652e6c696e6b2f697066732f62616679626569626d7a75663332636762377262616937686b723468776577377664696c646236736a6e6f697667637135616f64346e3432336d692fa264697066735822122078ee883d3b00d0a829b5cebe15d89afd7f71fdcb201337fc1937fb348110644d64736f6c63430008140033",
  "linkReferences": {},
  "deployedLinkReferences": {}
}